:020000040800F2
:1000000000110020CD010008770D0008F30C000856
:10001000750D0008B5080008A716000800000000CC
:100020000000000000000000000000008D12000829
:100030003B09000800000000370E00088F1200087E
:10004000A9160008350E00089112000807110008D3
:10005000B90A000871100008410A0008450A0008A2
:10006000470A0008490A00084B0A00082509000849
:1000700027090008290900082B0900082D09000894
:100080002F09000831090008BF040008A316000862
:10009000A5160008B7080008B90800084D0A0008AE
:1000A0009312000899120008971200089512000890
:1000B0009D120008D112000801130008F70C000877
:1000C000F50C0008FB0C0008F90C0008871200086A
:1000D00089120008651400086914000865150008F5
:1000E000430A000805110008A116000809130008BA
:1000F0000F1300080D1300080B130008C1040008BB
:10010000EB0B000885120008031300088B1200088F
:1001100061140008631400080513000807130008A1
:1001200033090008350900083709000839090008B3
:1001300000F002F800F03AF80AA090E8000C8244BF
:100140008344AAF10107DA4501D100F02FF8AFF29C
:10015000090EBAE80F0013F0010F18BFFB1A43F0A5
:100160000103184794170000B4170000103A24BF89
:1001700078C878C1FAD8520724BF30C830C144BF0C
:1001800004680C607047000000230024002500264E
:10019000103A28BF78C1FBD8520728BF30C148BFEA
:1001A0000B6070471FB51FBD10B510BD00F04DF9B5
:1001B0001146FFF7F7FF01F04DFB00F06BF903B4B8
:1001C000FFF7F2FF03BC00F073F90000034800479B
:1001D00003480449044A054B7047000031010008F8
:1001E0000009002000110020000D0020000D00205B
:1001F00030BF704720BF704740BF7047BFF36F8F5D
:100200007047BFF34F8F7047BFF35F8F704701DFB9
:100210007047EFF31480704780F31488BFF36F8F3B
:100220007047EFF30980704780F309887047EFF358
:100230000880704780F30888704762B6704772B6CE
:100240007047EFF31080704771B6704761B6704722
:10025000EFF31380704780F311887047EFF312803B
:10026000704740BA704700BA704740EA010302463F
:1002700030B59B0710D14FF0013400E008C208C927
:100280001D1B9D4315EAC41FF8D013F0FF0102F8AF
:10029000011B0DD01B0AF8E711F8013B002B02F8F7
:1002A000013B05D011F8013B002B02F8013BF3D1D3
:1002B00030BD10B5431C02E010F8011B71B181077D
:1002C000FAD14FF0013202C88C1A8C4314EAC211E1
:1002D000F9D0C01A0A0603D0C01E10BDC01A10BD46
:1002E0000A0401D0801E10BD0902FCD0401E10BDC2
:1002F000421E12F8013F002BFBD111F8013B002BED
:1003000002F8013BF9D17047032A40F2308010F027
:10031000030C00F0158011F8013BBCF1020F6244A0
:1003200098BF11F801CB00F8013B38BF11F8013B31
:10033000A2F1040298BF00F801CB38BF00F8013BDE
:1003400011F0030300F04F80083AC0F0088051F824
:10035000043B083A51F804CBA0E80810F5E7121D59
:100360005CBF51F8043B40F8043BAFF30080D20778
:1003700024BF11F8013B11F801CB48BF11F8012B44
:1003800024BF00F8013B00F801CB48BF00F8012B67
:1003900070474FF0000200B5134694469646203948
:1003A00022BFA0E80C50A0E80C50B1F12001BFF42E
:1003B000F7AF090728BFA0E80C5048BF0CC05DF894
:1003C00004EB890028BF40F8042B08BF704748BFE2
:1003D00020F8022B11F0804F18BF00F8012B704756
:1003E00070477047704710B5203AC0F00B80B1E8F5
:1003F0001850203AA0E81850B1E81850A0E818505A
:10040000BFF4F5AF5FEA027C24BFB1E81850A0E862
:10041000185044BF18C918C0BDE810405FEA827C7C
:1004200024BF51F8043B40F8043B08BF7047D20793
:1004300028BF31F8023B48BF11F8012B28BF20F834
:10044000023B48BF00F8012B7047754600F02CF8BE
:10045000AE4605006946534620F00700854618B0B1
:1004600020B5FFF7B5FEBDE820404FF000064FF085
:1004700000074FF000084FF0000B21F00701AC46D9
:10048000ACE8C009ACE8C009ACE8C009ACE8C009F8
:100490008D46704710B50446AFF300802046BDE896
:1004A0001040FFF78CBE0000004870479C080020F9
:1004B00001491820ABBEFEE72600020070477047D6
:1004C0007047000070B5184C184D0E68002376B1C7
:1004D0000078432801D0632808D16678012006B946
:1004E00060702E68C82E01DB2B6010700B6068688E
:1004F00040F6FF61884215DB6B600D4D28680D49A1
:100500000840B0F1005F09D100F01CF86868E061B4
:10051000A0612868FFF78EFEA069804706A000F062
:100520008BFCFEE770BD0000000000206C04002082
:10053000002000080000FE2F0A0DD4CBD0D0CAA79F
:10054000B0DC210010B500F015F800F057F8BDE858
:10055000104000F0BBB810B500F0AAFC00F00CFC95
:1005600000F044FB00F013F800F05CF8BDE8104028
:1005700000F0E4B810B501218C070022204600F0FD
:100580003BFF2046BDE81040002100F0C4BE7FB50F
:100590000121084600F05CFC4FF08045284600F041
:1005A000C5FE0024ADF8064040F2E730ADF8040087
:1005B000ADF802404720ADF800006946284600F03B
:1005C00025FF1C208DF80C000A208DF80D008DF8F9
:1005D0000E4001208DF80F0003A800F0D9FB002188
:1005E000284600F011FF01221146284600F004FFC2
:1005F0000121284600F08FFE7FBD000010B5084C99
:100600000021204600F087FE0021204600F0FCFE7D
:1006100020460022BDE81040012100F0EDBE0000A0
:10062000000400407FB50121022000F011FC194DAB
:10063000284600F07BFE0024ADF8064042F6CF715C
:10064000ADF80240ADF80410ADF800406946284608
:1006500000F0DCFE1D208DF80C0006208DF80D004A
:100660008DF80E4001208DF80F0003A800F090FBDC
:100670000021284600F0C8FE00220121284600F093
:10068000BBFE0121284600F043FE0021284600F071
:1006900042FE7FBD0004004010B5084C00212046FA
:1006A00000F0B2FE0121204600F035FE2046012276
:1006B000BDE81040114600F09FBE0000000400405D
:1006C0000149086070470000340000202DE9F04126
:1006D000154801780129FCD1144C0021204600F076
:1006E00048FF40F2277500222946204600F071FF9E
:1006F00040F2255600223146204600F06AFF40F2C3
:10070000266700223946204600F063FF294620462E
:1007100000F029FF3946204600F025FF31462046EB
:10072000BDE8F04100F01FBF380000200044004049
:100730000149486070470000380000202DE9F0436F
:1007400087B001214FF4827000F09AFB01214F0421
:10075000384600F07DFB3E12ADF8006010208DF8A9
:100760000300DFF8B09003248DF802406946484644
:1007700000F06EFA0425ADF800501820DFF89880DC
:100780008DF803006946404600F062FA0820ADF893
:1007900000008DF803506946404600F059FA0121E7
:1007A000384600F061FB0021384600F05DFB4FF455
:1007B000E13001900020ADF80800ADF80A00ADF876
:1007C0000C00ADF810000C20144DADF80E0001A97E
:1007D000284600F017FF26208DF814008DF81540EC
:1007E0008DF8164001208DF8170005A800F0D0FA0A
:1007F000012240F22551284600F0EBFE0121284657
:1008000000F0B7FE3146484600F06FFA07B0BDE889
:10081000F083000000200140000801400044004037
:100820002DE9F047DFF880800C4606464FF400774C
:100830003946404600F05BFA4FF47A79484600F0BA
:100840007DF81A4DA868006830B92CB1B4F5836FF3
:1008500002D82878012809D03946404600F045FAE8
:10086000484600F06BF80020BDE8F087104F16F8FE
:10087000011B384600F010FF4021384600F083FE8F
:100880000028F9D000212970A868621E04C020F851
:10089000021B3146FFF738FD012240F2277138462E
:1008A00000F097FE0120DFE7002001403800002023
:1008B00000440040FEE77047704700000C4B18787A
:1008C00060B101280CD002280DD003280DD00020E3
:1008D000187008491B69064A881D1847064800E039
:1008E00006481861F5E70648FBE70648F9E7000007
:1008F000000000204C000020C50400084D0900083D
:10090000FD0C00082D11000810B50448FFF7D8FEB3
:10091000BDE810400248FFF70BBF00004914000873
:10092000091100087047704770477047704770475B
:1009300070477047704770477047704701B500981F
:1009400001E0401E00900028FBD108BD70B50646AE
:10095000012008600C4615460DA13046FFF785FCC6
:100960001BA13046FFF7C4FC1FA13046FFF7C0FCB7
:1009700022A13046FFF7BCFC2FA13046FFF7B8FCA0
:1009800002202870304600F057FA0020206070BD29
:100990000D2A2A2A2A2A2A2A2A2A2A2A2A2A2A2AD4
:1009A0002A2A2A2A2A2A2A2A2A2A2A2A2A2A2A2AA7
:1009B0002A2A2A2A2A2A2A2A2A2A2A2A2A2A2A2A97
:1009C0002A2A2A2A2A2A2A2A2A2A0D0A000000006C
:1009D000312EB8FCD0C2D3A6D3C3C7F8B3CCD0F263
:1009E000A3BB0D0A00000000322ED4CBD0D0415062
:1009F00050B3CCD0F2A1A30D0A0000002A2A2A2A63
:100A00002A2A2A2A2A2A2A2A2A2A2A2A2A2A2A2A46
:100A10002A2A2A2A2A2A2A2A2A2A2A2A2A2A2A2A36
:100A20002A2A2A2A2A2A2A2A2A2A2A2A2A2A2A2A26
:100A30002A2A2A2A2A0D0A00C7EBD1A1D4F13A00AA
:100A400070477047704770477047704770470000A5
:100A500070B5054640F6FF76304600F097F804285A
:100A600013D10A4C206940F00200206165612069C1
:100A700040F040002061304600F088F8012804D0A2
:100A8000216941F6FD721140216170BD00200240D4
:100A900008490420CA68D20701D001207047CA68FB
:100AA000520701D502207047C968C906FBD503204B
:100AB00070470000002002407047000002480169B2
:100AC00041F08001016170470020024004490A683A
:100AD00022F010020A600A6802430A6070470000B0
:100AE00000200240FFF7EABF70B506460D460F2012
:100AF00000F04CF804280FD1084C206940F00100A8
:100B0000206135800F2000F041F8012804D02169D0
:100B100041F6FE721140216170BD000000200240CC
:100B20007CB500200426009000F024F809487B24BE
:100B3000094D019007E005EBC020FFF789FF009900
:100B40000646491C00910098A04201D2042EF2D022
:100B50007CBD000090D003000020000804490A6812
:100B600002F038020A600A6802430A607047000017
:100B70000020024003480249416003494160704738
:100B80002301674500200240AB89EFCD18B503462D
:100B9000FFF77EFFFF2407E020460094401E0090F0
:100BA000FCD1FFF775FF5B1E012803D0002B00D19D
:100BB000052018BD002BEFD1FAE738B504468D1893
:100BC000084600910DE02188FFF78EFF20880099EC
:100BD0000988884201D0002038BD0098801CA41CE0
:100BE00000908542EFD8012038BD704710B5012133
:100BF0007C2000F045F910484FF6FF71018000217C
:100C0000C17001460D4800F023F80B490C4800F074
:100C10001FF809490B4800F01BF807490A4800F083
:100C200017F80549094800F013F80021BDE8104005
:100C30007C2000F025B900002E00002000080140B3
:100C4000000C014000100140001401400018014058
:100C5000F0B5CC78002204F00F03E40601D58C78BF
:100C600023430C784FF00F0C14F0FF0F4FF0010EE0
:100C70001AD005680E880EFA02F42640A6420FD15B
:100C800096000CFA06F725EA070703FA06F5CE7870
:100C90003D43282E00D14461CE78482E00D1046116
:100CA000521C082AE6D305600A88FF2A1CD944682A
:100CB000002202F108060EFA06F50E882E40AE421A
:100CC0000ED196000CFA06F7BC4303FA06F7CE786D
:100CD0003C43282E00D14561CE78482E00D10561D5
:100CE000521C082AE5D34460F0BD416170470161A0
:100CF0007047FEE7704770477047704770B50C4605
:100D00000968002918D000780025312802D032283F
:100D100011D10CE00A48094941610A4941600A4978
:100D2000C1600A4981600320107009A001E01570BC
:100D30000CA000F081F8256070BD000000200008C4
:100D400000000020210B0008BB0B0008E50A00088A
:100D5000310D0AC7EBD1A1D4F1D2AAB7A2CBCDCE27
:100D6000C4BCFE00320D0AD4CBD0D0B3CCD0F22E0E
:100D70002E2E0000FEE7704710B500214FF00060F6
:100D800000F04EF8BDE810404FF4407000F03EB85F
:100D900070B50F25C2780178012652B31A4A12683D
:100DA000447802F4E062C2F5E062120AC2F1040380
:100DB000D54082789C402A40224314018A07D30EF2
:100DC00021F0030202F1E0229C40D2F80054FF21FE
:100DD00099408D430C402543C2F80054007800F040
:100DE0001F018E404009800000F1E020C0F8006142
:100DF00070BD01F01F0086404809800000F1E0202E
:100E0000C0F8806170BD00000CED00E002490843AD
:100E100002490860704700000000FA050CED00E090
:100E2000024A1140014302480160704780FFFF1FE2
:100E300008ED00E07047704770B50546FFF739FAD6
:100E400084B221462846FFF7EBFC0128F9D170BD9A
:100E5000044A0029D16901D0014300E08143D161F6
:100E60007047000000100240044A0029116901D0B7
:100E7000014300E08143116170470000001002400F
:100E8000044A0029916901D0014300E08143916146
:100E90007047000000100240044A0029D16801D0C8
:100EA000014300E08143D160704700000010024020
:100EB00010B500F031F84FF48034204600F0BEF851
:100EC00000F006F913490128087022D11020FFF71D
:100ED000FDFD0220FFF742FE002000F0A5F80020F3
:100EE00000F0D2F8002000F0C5F84FF4E0112046E1
:100EF00000F0DAF8012000F0D1F8392000F074F8A1
:100F00000028FAD0022000F0D9F800F085F808286F
:100F1000FBD110BD2C0000200B48016841F00101FD
:100F200001604168094A114041600168084A114066
:100F30000160016821F480210160416821F4FE0113
:100F40004160002181607047001002400000FFF8FE
:100F5000FFFFF6FE30B5204A5168204B11F00C011E
:100F600003D0042901D0082901D0036011E05168A1
:100F7000022301F4701103EB9141536813F4803F95
:100F800002D053689B0301D5154B00E0134B594326
:100F9000016051680F2303EA1111124B5C5C016878
:100FA000E14041605468072505EA14241C5D21FADC
:100FB00004F48460546805EAD4241B5DD940C16000
:100FC0005268032303EA9232064B1B1F9A5CB1FB63
:100FD000F2F1016130BD00000010024000127A0001
:100FE00000093D00E8180008034600205909094A95
:100FF00001290AD002290AD0516A03F01F020123F5
:1010000093400B4200D0012070471168F5E7116A48
:10101000F3E70000001002400248406800F00C00B6
:101020007047000000100240034A516821F0F001AF
:101030000143516070470000001002400B490A68EC
:1010400022F480320A600A6822F480220A60B0F535
:10105000803F07D0B0F5802F03D1086840F4A0206E
:1010600008607047086840F48030F9E700100240DB
:1010700070470000034A516821F4E0610143516068
:101080007047000000100240034A516821F460518B
:1010900041EAC000506070470010024001490866F4
:1010A0007047000000004242034B5A68084322F494
:1010B0007C1210435860704700100240034A516888
:1010C00021F003010143516070470000001002400D
:1010D00030B50B4C40F2FF153120FFF785FF207033
:1010E0006068401C6060207810B96068A842F3D145
:1010F0003120FFF779FF002800D0012030BD00002B
:101100004400002070477047074A9188B1F5836F0B
:1011100009D21168002906D191885318491C918081
:101120009871FFF7B9BA70474C000020F0B5ADF2E6
:101130000C4D0C460746164640F204416846FFF740
:1011400028F900250DF204436A4621463846CDF8B9
:10115000045400F0ABFA144CB0F1FF3F18D0012852
:1011600008D0022803D16068002800D080470DF223
:101170000C4DF0BDE3682BB1DDF80404616982B267
:10118000684698476069DDF8041408446061EEE73A
:10119000A06800B180476560E560A560357003A078
:1011A000FFF74AFEE3E70000000000200D0AD4CB61
:1011B000D0D0B3CCD0F22E2E2E0000002DE9F04777
:1011C0008C4692460178089A994601290BD002294B
:1011D0000BD0042917D0032915D018290DD04FF0B2
:1011E000FF30BDE8F087802501E04FF4806541784D
:1011F00091420AD06FF00100F3E74078182802D03E
:101200006FF00500EDE70020EBE78178D243D2B222
:10121000914202D06FF00200E3E7691D8C4502D0D5
:101220006FF00300DDE7C21C2946002341F22107CD
:101230004FF6FF7810E012F8014B83EA04230824EC
:101240001E0403D587EA43039BB201E008EA430387
:10125000641E2404240CF3D1491E89B2EBD200EBA6
:101260000C0131F8021C49BA994202D06FF0040017
:10127000B7E7C11C2A465046FFF746F80120C9F8D7
:101280000050AEE77047704770477047704770472F
:1012900070477047704770477047000070B5012174
:1012A0008D070024284600F09BF801280DD101216C
:1012B000284600F02DF8054850F82410491C40F845
:1012C0002410641CA4B2042CF6D370BD6C0400205E
:1012D00010B5094C0121204600F082F801280AD1FE
:1012E0000121204600F014F804480068002802D0CC
:1012F000BDE81040004710BD00040040340000204D
:101300007047704770477047704770477047704725
:10131000C943018270470029018802D041F00101D0
:1013200002E040F2FE321140018070472A4A10B5B7
:10133000811A1315D41490423BD010DCB0F1804FC9
:1013400022D02649401826D098422BD0A04241D125
:1013500001210820FFF788FD0021082036E099428E
:101360002ED0B1F58E3F0DD0B1F5923F32D1012193
:101370004C032046FFF790FD2046BDE810400021B9
:10138000FFF78ABD0121F4E701210846FFF76CFD54
:10139000002101201AE001210220FFF765FD002154
:1013A000022013E001210420FFF75EFD002104204C
:1013B0000CE001211020FFF757FD0021102005E06F
:1013C00001212020FFF750FD00212020BDE8104022
:1013D000FFF74ABD10BD00000010004000FCFFBF39
:1013E00002460020138A92890B4202EA010202D0CF
:1013F000002A00D001207047002A828901D00A43C8
:1014000000E08A438281704781847047028802F03D
:101410008F020280CA884B881A4303881A430280CD
:101420008A8882850A88028501228282044A904243
:1014300002D0044A904201D1097A01867047000027
:10144000002C01400034014010B5FFF7D7F80348E5
:10145000818801600021818010BD00004C000020C7
:1014600070477047704700002DE9F0473A4D40F251
:1014700027773946284600F08DF8DFF8E090384CA1
:101480004FF400784FF47A7A40F2266601281BD098
:101490003146284600F07EF898B341464846FFF7AB
:1014A00024FC5046FFF74AFA3146284600F05BF824
:1014B00000223146284600F08CF8A1680020086020
:1014C00001202070BDE8F0873946284600F04BF82F
:1014D000A068414600680028484613D0FFF707FC83
:1014E0005046FFF72BFAA1688B1D8A88501C888014
:1014F000D15C284600F0D0F8A0680168491E016060
:10150000E0E710E0FFF7F1FB5046FFF717FA002283
:101510003946284600F05DF831462846BDE8F047D8
:10152000012200F056B840F225563146284600F018
:1015300031F80028C6D02F46284600F0A9F8C5B2D9
:101540003146384600F00FF861680029BAD02846C5
:10155000BDE8F0470847000000440040002001407B
:101560003800002070470A0A01219140C9430180D8
:1015700070470029818902D041F4005101E021F433
:101580000051818170470246002012880A4200D033
:101590000120704770B501F01F0501260024C1F33A
:1015A000421306FA05F2012B0FD0022B0FD0838ACB
:1015B0004FEA11210088134206FA01F600EA0600FC
:1015C00001D000B10124204670BD8389F0E7038A71
:1015D000EEE710B5C1F3421301F01F040121A14051
:1015E000012B07D0022B07D01430002A026805D047
:1015F0000A4304E00C30F8E71030F6E78A43026053
:1016000010BD000030B50446008A85B00D464CF68A
:10161000FF710840E98801432182A0894EF6F31149
:101620000840A9882A8911436A8902431143A1818C
:10163000A08A4FF6FF410840A9890143A18268466C
:10164000FFF788FC1148844201D1039800E002981A
:10165000642200EBC00101EB001029686FF018054F
:101660008900B0FBF1F0B0FBF2F109010B096B430B
:1016700000EB8300322303EB0010B0FBF2F000F02C
:101680000F000843208105B030BD00000038014044
:101690008088C0F308007047C1F30801818070475B
:1016A000704770477047FEE7704700002DE9F84F1C
:1016B000594C93460E460025227858494FF00409AC
:1016C0004FF0010A4FF47A7C2F46052A0DD2DFE84D
:1016D00002F0030D45548D006760A760677084F8C1
:1016E00000A0C86800287EDBCF607CE08846C9681F
:1016F000614509DBC8F80C70474A47490832432066
:1017000000F08EF827706EE0316800296BD02279E6
:1017100000925A46FFF752FD40B2376078B1012877
:1017200016D19BF8030038B102202070054660688E
:10173000401C6060677050E084F800904DE0607875
:1017400008B1676040E0344A3349083215203FE071
:10175000314A67700832304915202CE003202E4AA8
:10176000207008322C49062000F05AF82A4A2A49EB
:101770000832432000F054F835E08846C9686145D6
:1017800004DBC8F80C7084F800902CE0316851B389
:10179000227900925A46FFF711FD40B2376068B1D6
:1017A0000128D5D160681C4A401C60600125677023
:1017B00008321949062000F033F80EE0607800285E
:1017C000C1D0676084F800A0134A1349083206208C
:1017D00000F026F86078401C6070D8F80C10404685
:1017E000002900DBC7602846BDE8F88F0A4A0A498D
:1017F0000832062000F014F8074A0749083218207A
:1018000000F00EF8044A04490832182000F008F8E5
:101810004FF0FF3576E70000200000206C04002028
:1018200037B514460D4601216846FEF7F9FF012839
:10183000F9D19DF80000062809D0152806D12068A6
:10184000401C2060052801DD042028703EBD0020DA
:1018500020603EBDFEF77FFEFFF756F80BA0FFF7B6
:10186000EBFA0FA0FFF7E8FA11A0FFF7E5FA15A0D1
:10187000FFF7E2FA4FF47A760025194CFFF71EF8CD
:101880002068B042FADB2560F8E700000D2A2A2A1A
:101890002A2A2A2A2A2A2A2A2A2A2A2A0D0A000039
:1018A000E7829CE9BA92E7A791E68A800D0A0000D8
:1018B0002A2A2A2A2A2A2A2A2A2A2A2A2A2A2A0DA5
:1018C0000A000000E8AFB7E8BE93E585A5E5AD974F
:1018D000E7ACA6E2809843E280992E2E2E0D0A00F6
:1018E0006C0400200204060800000000010203044A
:1018F0000102030406070809181900080000002067
:101900004C0000006C010008641900084C00002025
:10191000B410000088010008000000000000000072
:10192000000000000000000000000000002000088F
:1019300000000000000000000000000000000000A7
:101940000000000000000000000000000000000097
:1019500001000000000000007C04002000000000E6
:041960000000000083
:0400000508000131BD
:00000001FF
