:020000040800F2
:1000000038040020450100084D0100084F01000898
:1000100051010008530100085501000800000000CC
:100020000000000000000000000000005701000870
:1000300059010008000000005B010008A506000847
:100040005F0100085F0100085F0100085F01000810
:100050005F0100085F0100085F0100085F01000800
:100060005F0100085F0100085F0100085F010008F0
:100070005F0100085F0100085F0100085F010008E0
:100080005F0100085F0100085F0100085F010008D0
:100090005F0100085F0100085F0100085F010008C0
:1000A0005F0100085F0100085F0100085F010008B0
:1000B0005F0100085F0100085F0100085F010008A0
:1000C0005F0100085F0100085F0100085F01000890
:1000D0005F0100085F0100085F0100085F01000880
:1000E0005F0100085F0100085F0100085F01000870
:1000F0005F0100085F0100085F0100085F01000860
:100100005F0100085F0100085F0100085F0100084F
:100110005F0100085F0100085F0100085F0100083F
:100120005F0100085F0100085F0100085F0100082F
:10013000DFF80CD000F02EF800480047650A0008F0
:10014000380400200648804706480047FEE7FEE7DF
:10015000FEE7FEE7FEE7FEE7FEE7FEE7FEE7FEE777
:100160002D0700083101000830B50B46014600207C
:100170002022012409E021FA02F59D4205D303FA69
:1001800002F5491B04FA02F52844151EA2F10102EA
:10019000F1DC30BD064C074D06E0E06840F001039D
:1001A00094E8070098471034AC42F6D3FFF7C4FF39
:1001B000800B0008A00B000801B500F04DFC0146C3
:1001C00000BF00F049FC401A009A9042F9D308BDE4
:1001D00030B5044604254FF4302000F06FF8054692
:1001E000042D17D10C48006940F002000A4908614B
:1001F00008464461006940F0400008614FF4302037
:1002000000F05CF805460448006941F6FD710840BD
:1002100001490861284630BD0020024004200B49F6
:10022000C96801F0010109B101200EE00749C96860
:1002300001F0040109B1022007E00449C96801F096
:10024000100109B1032000E00420704700200240A3
:100250000348006940F080000149086170470000D0
:100260000020024070B504460D460426F00200F05E
:1002700025F80646042E11D10948006940F0010016
:10028000074908612580F00200F018F80646044886
:10029000006941F6FE71084001490861304670BDB1
:1002A0000020024002480349486003484860704704
:1002B0002301674500200240AB89EFCD00B502461F
:1002C0000423FFF7ABFF034603E0FFF7A7FF034656
:1002D000521E012B01D1002AF7D102B9052318467D
:1002E00000BD2DE9FE4F82460E461446CDF808A00B
:1002F000354601964FF00008002000904FF0FF09AE
:10030000204604EBD0714910A4EB410131B101202A
:100310000090601E0199085C49EA0029204604EB20
:10032000D071C1F34F0B002715E029880298FFF721
:1003300099FF288802990988884202D04046BDE882
:10034000FE8F0298801C029008F102001FFA80F8CC
:10035000AD1C781C87B25F45E7DB009860B1494669
:100360000298FFF77FFF2888484501D04046E6E71E
:1003700008F102001FFA80F84046E0E72DE9F0415D
:10038000024600250026002000230024002791F8C3
:1003900003C00CF00F0591F803C00CF0100CBCF179
:1003A000000F03D091F802C04CEA050591F800C097
:1003B000BCF1000F31D0146800202BE04FF0010C8D
:1003C0000CFA00F3B1F800C00CEA03069E4220D1FB
:1003D00083004FF00F0C0CFA03F7BC4305FA03FC43
:1003E0004CEA040491F803C0BCF1280F06D14FF089
:1003F000010C0CFA00FCC2F814C00AE091F803C02A
:10040000BCF1480F05D14FF0010C0CFA00FCC2F80A
:1004100010C0401C0828D1D31460B1F800C0BCF152
:10042000FF0F34DD546800202EE000F1080C4FF07F
:10043000010808FA0CF3B1F800C00CEA03069E426A
:1004400021D183004FF00F0C0CFA03F7BC4305FADF
:1004500003FC4CEA040491F803C0BCF1280F05D159
:1004600000F1080C08FA0CF8C2F8148091F803C0E7
:10047000BCF1480F07D100F1080C4FF0010808FA51
:100480000CF8C2F81080401C0828CED35460BDE898
:10049000F08141617047000029B1064A9269024328
:1004A000044B9A6104E0034A92698243014B9A61CA
:1004B000704700000010024030B5002100220024E7
:1004C00000232D4D6D6805F00C0121B1042905D0E4
:1004D000082923D105E0294D056022E0274D05605C
:1004E0001FE0254D6D6805F47012234D6D6805F40D
:1004F0008034022505EB92421CB9214D554305601D
:100500000BE01D4D6D6805F400351DB11C4D5543C4
:10051000056002E0194D5543056002E0174D056086
:1005200000BF00BF144D6D6805F0F0010909154DBD
:100530006B5C0568DD4045600F4D6D6805F4E0615A
:10054000090A104D6B5C4568DD4085600A4D6D6899
:1005500005F46051C90A0B4D6B5C4568DD40C56010
:10056000054D6D6805F44041890B074D6B5CC5680E
:10057000B5FBF3F5056130BD0010024000127A00B2
:1005800000093D00080000201800002010B500F010
:1005900001F810BD0CB500200190009033480068B0
:1005A00040F480303149086000BF3048006800F4F2
:1005B000003000900198401C0190009818B90198F3
:1005C000B0F5A06FF1D12948006800F4003010B1F7
:1005D0000120009001E0002000900098012843D104
:1005E0002348006840F01000214908600846006870
:1005F00020F0030008600846006840F00200086030
:100600001A484068194948600846406848600846EA
:10061000406840F4806048600846406820F47C10E0
:1006200048600846406840F4E810486008460068A2
:1006300040F08070086000BF0C48006800F0007057
:100640000028F9D00948406820F0030007494860B5
:100650000846406840F00200486000BF0348406818
:1006600000F00C000828F9D10CBD00000010024079
:100670000020024040B14FF0E021096941F0010142
:100680004FF0E022116107E04FF0E021096921F00D
:1006900001014FF0E02211610021014A1160704711
:1006A0000000002002480068401C014908607047B3
:1006B0000000002030B51A4800684FF47A72B0FB91
:1006C000F2F1481EB0F1807F01D301201BE0481EEB
:1006D0004FF0E022506150170F22002807DA13076D
:1006E0001D0E104B00F00F04241F1D5503E01307CF
:1006F0001C0E0D4B1C5400BF00204FF0E0229061F7
:1007000007201061002008B100BFFEE74FF0E02095
:10071000006920F001004FF0E021086130BD0000C9
:100720001C00002018ED00E000E400E010B51348C4
:10073000006840F00100114908600846406810490F
:1007400008400E494860084600680E4908400B49B9
:1007500008600846006820F4802008600846406869
:1007600020F4FE0048604FF41F008860FFF70EFF82
:100770004FF000600449086010BD00000010024006
:100780000000FFF8FFFFF6FE08ED00E021B18289CE
:1007900042F40052828104E082894DF6FF731A40D0
:1007A0008281704702460020B1F5007F00D100BF72
:1007B00013880B400BB1012000E0002070470000BF
:1007C0002DE9F04786B005460E460024A24600BF3C
:1007D000A1460027B08900B100BF2F462C8A4CF6F5
:1007E000FF700440F08804432C82AC894EF6F3106D
:1007F0000440B08831890843718908430443AC81BF
:10080000AC8A4FF6FF400440B0890443AC8201A893
:10081000FFF752FE1F48874202D1DDF810A001E029
:10082000DDF80CA0A88900F4004040B10AEBCA0032
:1008300000EB0A1031684900B0FBF1F807E00AEB61
:10084000CA0000EB0A1031688900B0FBF1F864209F
:10085000B8FBF0F004012009642101FB1089A8898C
:1008600000F4004040B1322000EBC900B0FBF1F0D1
:1008700000F00700044308E0322000EB0910642177
:10088000B0FBF1F000F00F0004432C8106B0BDE88E
:10089000F087000000380140C1F3080282807047F1
:1008A0000FB4054B10B503A9044A029800F018F8DC
:1008B00010BC5DF814FB0000350A00083000002071
:1008C00002E008C8121F08C1002AFAD17047704719
:1008D000002001E001C1121F002AFBD17047000077
:1008E0002DE9FF4F89B09B460446002506E02528E8
:1008F0000BD05A460B999047641C6D1C2078002839
:10090000F5D10DB02846BDE8F08F0027B84601228A
:10091000474900E0074314F8013F203B02FA03F087
:100920000842F7D120782E2819D114F8010F47F08A
:1009300004072A280ED06FF02F022078A0F1300192
:1009400009290CD808EB880102EB410100EB0108F2
:10095000641CF2E70A98641C50F8048B0A90207813
:100960000028CED0642808D0692806D075281ED06B
:100970005A460B9990476D1C58E00A994FF00A09A6
:1009800001C90A91002802DA40422D2102E039050E
:1009900004D52B218DF82010012103E0F90704D0A4
:1009A0002021F7E78A4608AE0DE00021FAE70A9910
:1009B0004FF00A0901C90A91F7E74946FFF7D4FB4E
:1009C000303106F8011D0028F7D1ADEB060000F12B
:1009D0002009780701D44FF00108C84502DDA8EBD3
:1009E000090000E000208046002706E008A85A46DB
:1009F000C05D0B9990476D1C7F1C5745F6DB04E0EA
:100A000030205A460B9990476D1CB8F10001A8F1AF
:100A10000108F5DC05E016F8010B5A460B999047E2
:100A20006D1CB9F10001A9F10109F4DC641C65E752
:100A30000928010070B504460D4600BF4021054855
:100A4000FFF7B0FE0128F9D1E1B20248FFF724FF19
:100A5000204670BD00380140014800687047000022
:100A60000000002086B001211020FFF715FD1020A6
:100A70008DF817004002ADF8140003208DF8160021
:100A800005A92848FFF77AFC4FF400512548FFF7E5
:100A900000FD012144F20400FFF7FEFC012108469D
:100AA000FFF7FAFC18208DF817004FF40070ADF82E
:100AB000140005A91C48FFF761FC4FF48060ADF8F5
:100AC000140004208DF8170005A91748FFF756FCFD
:100AD0004FF4E13001900020ADF810000C20ADF88B
:100AE0000E000020ADF80C00ADF80A00ADF80800CB
:100AF00001A90E48FFF764FE01210C48FFF746FEEE
:100B0000FFF7D8FD0120FFF7B5FD00F015F808E06C
:100B10004FF47A70FFF750FB0548016805A0FFF716
:100B2000BFFEF5E700100140000801400038014019
:100B300000000020257564003EB50BA207CA8DE8B1
:100B40000700FFF7AFFB0B48FFF742FB0B2269469C
:100B50000848FFF7C6FB0446FFF77AFB214606A0CC
:100B6000FFF79EFE3EBD00001234FFFFFF040302AC
:100B70000100AA00000001087265742025640A00C3
:100B8000A00B00080000002034000000C00800088E
:100B9000D40B00083400002004040000D008000832
:100BA000000000000000000000000000010203043B
:100BB00001020304060708090204060800A24A0409
:100BC00000000000000000000102030406070809FD
:040BD0000000000021
:0400000508000131BD
:00000001FF
